{
  "address": "0xb277Fc0AC7e86c4c5d4C542296C3519E6eb99A2A",
  "abi": [
    {
      "inputs": [
        {
          "internalType": "address",
          "name": "_ssov",
          "type": "address"
        },
        {
          "internalType": "address[]",
          "name": "_rewardTokens",
          "type": "address[]"
        }
      ],
      "stateMutability": "nonpayable",
      "type": "constructor"
    },
    {
      "anonymous": false,
      "inputs": [
        {
          "indexed": false,
          "internalType": "address",
          "name": "sender",
          "type": "address"
        }
      ],
      "name": "EmergencyWithdraw",
      "type": "event"
    },
    {
      "anonymous": false,
      "inputs": [
        {
          "indexed": false,
          "internalType": "uint256",
          "name": "epoch",
          "type": "uint256"
        },
        {
          "indexed": false,
          "internalType": "uint256[]",
          "name": "rewards",
          "type": "uint256[]"
        }
      ],
      "name": "NewRewards",
      "type": "event"
    },
    {
      "anonymous": false,
      "inputs": [
        {
          "indexed": true,
          "internalType": "address",
          "name": "previousOwner",
          "type": "address"
        },
        {
          "indexed": true,
          "internalType": "address",
          "name": "newOwner",
          "type": "address"
        }
      ],
      "name": "OwnershipTransferred",
      "type": "event"
    },
    {
      "anonymous": false,
      "inputs": [
        {
          "indexed": false,
          "internalType": "address",
          "name": "sender",
          "type": "address"
        },
        {
          "indexed": false,
          "internalType": "uint256",
          "name": "amountStaked",
          "type": "uint256"
        },
        {
          "indexed": false,
          "internalType": "uint256",
          "name": "totalStakedBalance",
          "type": "uint256"
        },
        {
          "indexed": false,
          "internalType": "uint256[]",
          "name": "totalRewardsArray",
          "type": "uint256[]"
        }
      ],
      "name": "Stake",
      "type": "event"
    },
    {
      "anonymous": false,
      "inputs": [
        {
          "indexed": false,
          "internalType": "address",
          "name": "sender",
          "type": "address"
        },
        {
          "indexed": false,
          "internalType": "uint256",
          "name": "amountUnstaked",
          "type": "uint256"
        },
        {
          "indexed": false,
          "internalType": "uint256[]",
          "name": "rewardTokenAmounts",
          "type": "uint256[]"
        }
      ],
      "name": "Unstake",
      "type": "event"
    },
    {
      "inputs": [],
      "name": "balance",
      "outputs": [
        {
          "internalType": "uint256",
          "name": "",
          "type": "uint256"
        }
      ],
      "stateMutability": "view",
      "type": "function"
    },
    {
      "inputs": [
        {
          "internalType": "address[]",
          "name": "tokens",
          "type": "address[]"
        },
        {
          "internalType": "bool",
          "name": "transferNative",
          "type": "bool"
        }
      ],
      "name": "emergencyWithdraw",
      "outputs": [],
      "stateMutability": "nonpayable",
      "type": "function"
    },
    {
      "inputs": [],
      "name": "getRewardTokens",
      "outputs": [
        {
          "internalType": "address[]",
          "name": "",
          "type": "address[]"
        }
      ],
      "stateMutability": "view",
      "type": "function"
    },
    {
      "inputs": [
        {
          "internalType": "uint256",
          "name": "",
          "type": "uint256"
        }
      ],
      "name": "lastTimestamp",
      "outputs": [
        {
          "internalType": "uint256",
          "name": "",
          "type": "uint256"
        }
      ],
      "stateMutability": "view",
      "type": "function"
    },
    {
      "inputs": [],
      "name": "owner",
      "outputs": [
        {
          "internalType": "address",
          "name": "",
          "type": "address"
        }
      ],
      "stateMutability": "view",
      "type": "function"
    },
    {
      "inputs": [],
      "name": "renounceOwnership",
      "outputs": [],
      "stateMutability": "nonpayable",
      "type": "function"
    },
    {
      "inputs": [
        {
          "internalType": "uint256",
          "name": "",
          "type": "uint256"
        }
      ],
      "name": "rewardTokens",
      "outputs": [
        {
          "internalType": "address",
          "name": "",
          "type": "address"
        }
      ],
      "stateMutability": "view",
      "type": "function"
    },
    {
      "inputs": [
        {
          "internalType": "uint256",
          "name": "",
          "type": "uint256"
        },
        {
          "internalType": "uint256",
          "name": "",
          "type": "uint256"
        }
      ],
      "name": "rewardsPerEpoch",
      "outputs": [
        {
          "internalType": "uint256",
          "name": "",
          "type": "uint256"
        }
      ],
      "stateMutability": "view",
      "type": "function"
    },
    {
      "inputs": [],
      "name": "ssov",
      "outputs": [
        {
          "internalType": "address",
          "name": "",
          "type": "address"
        }
      ],
      "stateMutability": "view",
      "type": "function"
    },
    {
      "inputs": [
        {
          "internalType": "uint256",
          "name": "amount",
          "type": "uint256"
        }
      ],
      "name": "stake",
      "outputs": [
        {
          "internalType": "uint256[]",
          "name": "rewardTokenAmounts",
          "type": "uint256[]"
        }
      ],
      "stateMutability": "nonpayable",
      "type": "function"
    },
    {
      "inputs": [
        {
          "internalType": "address",
          "name": "newOwner",
          "type": "address"
        }
      ],
      "name": "transferOwnership",
      "outputs": [],
      "stateMutability": "nonpayable",
      "type": "function"
    },
    {
      "inputs": [],
      "name": "unstake",
      "outputs": [
        {
          "internalType": "uint256[]",
          "name": "rewardTokenAmounts",
          "type": "uint256[]"
        }
      ],
      "stateMutability": "nonpayable",
      "type": "function"
    },
    {
      "inputs": [
        {
          "internalType": "uint256[]",
          "name": "_rewards",
          "type": "uint256[]"
        },
        {
          "internalType": "uint256",
          "name": "_epoch",
          "type": "uint256"
        }
      ],
      "name": "updateRewardsPerEpoch",
      "outputs": [],
      "stateMutability": "nonpayable",
      "type": "function"
    }
  ],
  "transactionHash": "0x30857338eb7cfad93ce2f37094db18520d8e87d08a86ea452e388dc2a09610b4",
  "args": [
    "0xCdaACF37726Bf1017821b5169e22EB34734B28A8",
    [
      "0x32eb7902d4134bf98a28b963d26de779af92a212",
      "0x10393c20975cF177a3513071bC110f7962CD67da"
    ]
  ],
  "numDeployments": 3,
  "solcInputHash": "8e5f318c6571b8ba40247dfdec1932a9",
  "bytecode": "0x60a06040523480156200001157600080fd5b50604051620014d1380380620014d183398101604081905262000034916200016e565b6200003f336200006a565b6001600160a01b038216608052805162000061906004906020840190620000ba565b50505062000257565b600080546001600160a01b038381166001600160a01b0319831681178455604051919092169283917f8be0079c531659141344cd1fd0a4f28419497f9722a3daafe3b4186f6b6457e09190a35050565b82805482825590600052602060002090810192821562000112579160200282015b828111156200011257825182546001600160a01b0319166001600160a01b03909116178255602090920191600190910190620000db565b506200012092915062000124565b5090565b5b8082111562000120576000815560010162000125565b80516001600160a01b03811681146200015357600080fd5b919050565b634e487b7160e01b600052604160045260246000fd5b600080604083850312156200018257600080fd5b6200018d836200013b565b602084810151919350906001600160401b0380821115620001ad57600080fd5b818601915086601f830112620001c257600080fd5b815181811115620001d757620001d762000158565b8060051b604051601f19603f83011681018181108582111715620001ff57620001ff62000158565b6040529182528482019250838101850191898311156200021e57600080fd5b938501935b82851015620002475762000237856200013b565b8452938501939285019262000223565b8096505050505050509250929050565b6080516112426200028f6000396000818161016d0152818161021701528181610288015281816105e3015261064f01526112426000f3fe608060405234801561001057600080fd5b50600436106100cf5760003560e01c80638da5cb5b1161008c578063c4f59f9b11610066578063c4f59f9b146101bc578063da6ca69f146101d1578063dfc0be2c146101e4578063f2fde38b146101f757600080fd5b80638da5cb5b1461018f578063a694fc3a146101a0578063b69ef8a8146101b357600080fd5b80632def6620146100d457806333687418146100f2578063715018a6146101205780637bb7bed11461012a5780637c4b52cb146101555780638355fc5414610168575b600080fd5b6100dc61020a565b6040516100e99190610ddb565b60405180910390f35b610112610100366004610dee565b60026020526000908152604090205481565b6040519081526020016100e9565b61012861045b565b005b61013d610138366004610dee565b61046f565b6040516001600160a01b0390911681526020016100e9565b610128610163366004610e15565b610499565b61013d7f000000000000000000000000000000000000000000000000000000000000000081565b6000546001600160a01b031661013d565b6100dc6101ae366004610dee565b6105d6565b61011260035481565b6101c4610879565b6040516100e99190610e9b565b6101126101df366004610ee8565b6108db565b6101286101f2366004610f20565b61090c565b610128610205366004610fe4565b610971565b6060336001600160a01b037f00000000000000000000000000000000000000000000000000000000000000001681146102845760405162461bcd60e51b815260206004820152601760248201527629b2b73232b91036bab9ba103132903a34329039b9b7bb60491b60448201526064015b60405180910390fd5b60007f000000000000000000000000000000000000000000000000000000000000000090506000816001600160a01b031663766718086040518163ffffffff1660e01b8152600401602060405180830381865afa1580156102e9573d6000803e3d6000fd5b505050506040513d601f19601f8201168201806040525081019061030d919061100d565b6004549091508067ffffffffffffffff81111561032c5761032c610f0a565b604051908082528060200260200182016040528015610355578160200160208202803683370190505b50945060005b8181101561041657600083815260016020526040902080548290811061038357610383611026565b90600052602060002001548682815181106103a0576103a0611026565b60200260200101818152505061040e336001600086815260200190815260200160002083815481106103d4576103d4611026565b9060005260206000200154600484815481106103f2576103f2611026565b6000918252602090912001546001600160a01b031691906109ea565b60010161035b565b507fe69f2c813fbacdba640c6e65761e2d4b772375f2fbe475137078d3ed850aff57336003548760405161044c9392919061103c565b60405180910390a15050505090565b610463610a41565b61046d6000610a9b565b565b6004818154811061047f57600080fd5b6000918252602090912001546001600160a01b0316905081565b6104a1610a41565b80156104d55760405133904780156108fc02916000818181858888f193505050501580156104d3573d6000803e3d6000fd5b505b6000805b8381101561059c578484828181106104f3576104f3611026565b90506020020160208101906105089190610fe4565b6040516370a0823160e01b815230600482015290925061058a9033906001600160a01b038516906370a0823190602401602060405180830381865afa158015610555573d6000803e3d6000fd5b505050506040513d601f19601f82011682018060405250810190610579919061100d565b6001600160a01b03851691906109ea565b8061059481611082565b9150506104d9565b506040513381527f5e7b34819cd91b239220bec92fcfd3c10da2214ba13e4e2b1f6c9cfdbd68a9a29060200160405180910390a150505050565b6060336001600160a01b037f000000000000000000000000000000000000000000000000000000000000000016811461064b5760405162461bcd60e51b815260206004820152601760248201527629b2b73232b91036bab9ba103132903a34329039b9b7bb60491b604482015260640161027b565b60007f000000000000000000000000000000000000000000000000000000000000000090506000816001600160a01b031663766718086040518163ffffffff1660e01b8152600401602060405180830381865afa1580156106b0573d6000803e3d6000fd5b505050506040513d601f19601f820116820180604052508101906106d4919061100d565b9050600080836001600160a01b0316636f56f56f846040518263ffffffff1660e01b815260040161070791815260200190565b6040805180830381865afa158015610723573d6000803e3d6000fd5b505050506040513d601f19601f82011682018060405250810190610747919061109b565b60045491935091508067ffffffffffffffff81111561076857610768610f0a565b604051908082528060200260200182016040528015610791578160200160208202803683370190505b50965060005b81811015610817576107a984426110bf565b6107b385856110bf565b60008781526001602052604090208054849081106107d3576107d3611026565b90600052602060002001546107e891906110d8565b6107f291906110fa565b88828151811061080457610804611026565b6020908102919091010152600101610797565b50876003600082825461082a9190611119565b90915550506003546040517ff129b07eb5effb6c354173bcbbef6ef8cbe16ba22a3207394dcd8e39314c3d39916108669133918c918c9061112c565b60405180910390a1505050505050919050565b606060048054806020026020016040519081016040528092919081815260200182805480156108d157602002820191906000526020600020905b81546001600160a01b031681526001909101906020018083116108b3575b5050505050905090565b600160205281600052604060002081815481106108f757600080fd5b90600052602060002001600091509150505481565b610914610a41565b6000818152600160209081526040909120835161093392850190610d40565b507ff9383cc26255a2a5f99c3fcc895fce2e26af48ed0b8529067ace5ff3348a4cfe8183604051610965929190611163565b60405180910390a15050565b610979610a41565b6001600160a01b0381166109de5760405162461bcd60e51b815260206004820152602660248201527f4f776e61626c653a206e6577206f776e657220697320746865207a65726f206160448201526564647265737360d01b606482015260840161027b565b6109e781610a9b565b50565b604080516001600160a01b038416602482015260448082018490528251808303909101815260649091019091526020810180516001600160e01b031663a9059cbb60e01b179052610a3c908490610aeb565b505050565b6000546001600160a01b0316331461046d5760405162461bcd60e51b815260206004820181905260248201527f4f776e61626c653a2063616c6c6572206973206e6f7420746865206f776e6572604482015260640161027b565b600080546001600160a01b038381166001600160a01b0319831681178455604051919092169283917f8be0079c531659141344cd1fd0a4f28419497f9722a3daafe3b4186f6b6457e09190a35050565b6000610b40826040518060400160405280602081526020017f5361666545524332303a206c6f772d6c6576656c2063616c6c206661696c6564815250856001600160a01b0316610bbd9092919063ffffffff16565b805190915015610a3c5780806020019051810190610b5e919061117c565b610a3c5760405162461bcd60e51b815260206004820152602a60248201527f5361666545524332303a204552433230206f7065726174696f6e20646964206e6044820152691bdd081cdd58d8d9595960b21b606482015260840161027b565b6060610bcc8484600085610bd6565b90505b9392505050565b606082471015610c375760405162461bcd60e51b815260206004820152602660248201527f416464726573733a20696e73756666696369656e742062616c616e636520666f6044820152651c8818d85b1b60d21b606482015260840161027b565b6001600160a01b0385163b610c8e5760405162461bcd60e51b815260206004820152601d60248201527f416464726573733a2063616c6c20746f206e6f6e2d636f6e7472616374000000604482015260640161027b565b600080866001600160a01b03168587604051610caa91906111bd565b60006040518083038185875af1925050503d8060008114610ce7576040519150601f19603f3d011682016040523d82523d6000602084013e610cec565b606091505b5091509150610cfc828286610d07565b979650505050505050565b60608315610d16575081610bcf565b825115610d265782518084602001fd5b8160405162461bcd60e51b815260040161027b91906111d9565b828054828255906000526020600020908101928215610d7b579160200282015b82811115610d7b578251825591602001919060010190610d60565b50610d87929150610d8b565b5090565b5b80821115610d875760008155600101610d8c565b600081518084526020808501945080840160005b83811015610dd057815187529582019590820190600101610db4565b509495945050505050565b602081526000610bcf6020830184610da0565b600060208284031215610e0057600080fd5b5035919050565b80151581146109e757600080fd5b600080600060408486031215610e2a57600080fd5b833567ffffffffffffffff80821115610e4257600080fd5b818601915086601f830112610e5657600080fd5b813581811115610e6557600080fd5b8760208260051b8501011115610e7a57600080fd5b60209283019550935050840135610e9081610e07565b809150509250925092565b6020808252825182820181905260009190848201906040850190845b81811015610edc5783516001600160a01b031683529284019291840191600101610eb7565b50909695505050505050565b60008060408385031215610efb57600080fd5b50508035926020909101359150565b634e487b7160e01b600052604160045260246000fd5b60008060408385031215610f3357600080fd5b823567ffffffffffffffff80821115610f4b57600080fd5b818501915085601f830112610f5f57600080fd5b8135602082821115610f7357610f73610f0a565b8160051b604051601f19603f83011681018181108682111715610f9857610f98610f0a565b604052928352818301935084810182019289841115610fb657600080fd5b948201945b83861015610fd457853585529482019493820193610fbb565b9997909101359750505050505050565b600060208284031215610ff657600080fd5b81356001600160a01b0381168114610bcf57600080fd5b60006020828403121561101f57600080fd5b5051919050565b634e487b7160e01b600052603260045260246000fd5b60018060a01b03841681528260208201526060604082015260006110636060830184610da0565b95945050505050565b634e487b7160e01b600052601160045260246000fd5b6000600182016110945761109461106c565b5060010190565b600080604083850312156110ae57600080fd5b505080516020909101519092909150565b818103818111156110d2576110d261106c565b92915050565b6000826110f557634e487b7160e01b600052601260045260246000fd5b500490565b60008160001904831182151516156111145761111461106c565b500290565b808201808211156110d2576110d261106c565b60018060a01b03851681528360208201528260408201526080606082015260006111596080830184610da0565b9695505050505050565b828152604060208201526000610bcc6040830184610da0565b60006020828403121561118e57600080fd5b8151610bcf81610e07565b60005b838110156111b457818101518382015260200161119c565b50506000910152565b600082516111cf818460208701611199565b9190910192915050565b60208152600082518060208401526111f8816040850160208701611199565b601f01601f1916919091016040019291505056fea2646970667358221220e73bcdf95f60dfde096841a78090a703739a2526698138094324f07f7e182aef64736f6c63430008100033",
  "devdoc": {
    "kind": "dev",
    "methods": {
      "emergencyWithdraw(address[],bool)": {
        "details": "Can only be called by the owner",
        "params": {
          "tokens": "The list of erc20 tokens to withdraw",
          "transferNative": "Whether should transfer the native currency"
        }
      },
      "owner()": {
        "details": "Returns the address of the current owner."
      },
      "renounceOwnership()": {
        "details": "Leaves the contract without owner. It will not be possible to call `onlyOwner` functions anymore. Can only be called by the current owner. NOTE: Renouncing ownership will leave the contract without an owner, thereby removing any functionality that is only available to the owner."
      },
      "transferOwnership(address)": {
        "details": "Transfers ownership of the contract to a new account (`newOwner`). Can only be called by the current owner."
      }
    },
    "version": 1
  },
  "userdoc": {
    "kind": "user",
    "methods": {
      "emergencyWithdraw(address[],bool)": {
        "notice": "Transfers all funds to msg.sender"
      }
    },
    "version": 1
  },
  "storageLayout": {
    "storage": [
      {
        "astId": 3739,
        "contract": "contracts/staking-strategies/BasicStakingStrategyV2.sol:BasicStakingStrategyV2",
        "label": "_owner",
        "offset": 0,
        "slot": "0",
        "type": "t_address"
      },
      {
        "astId": 15966,
        "contract": "contracts/staking-strategies/BasicStakingStrategyV2.sol:BasicStakingStrategyV2",
        "label": "rewardsPerEpoch",
        "offset": 0,
        "slot": "1",
        "type": "t_mapping(t_uint256,t_array(t_uint256)dyn_storage)"
      },
      {
        "astId": 15970,
        "contract": "contracts/staking-strategies/BasicStakingStrategyV2.sol:BasicStakingStrategyV2",
        "label": "lastTimestamp",
        "offset": 0,
        "slot": "2",
        "type": "t_mapping(t_uint256,t_uint256)"
      },
      {
        "astId": 15972,
        "contract": "contracts/staking-strategies/BasicStakingStrategyV2.sol:BasicStakingStrategyV2",
        "label": "balance",
        "offset": 0,
        "slot": "3",
        "type": "t_uint256"
      },
      {
        "astId": 15975,
        "contract": "contracts/staking-strategies/BasicStakingStrategyV2.sol:BasicStakingStrategyV2",
        "label": "rewardTokens",
        "offset": 0,
        "slot": "4",
        "type": "t_array(t_address)dyn_storage"
      }
    ],
    "types": {
      "t_address": {
        "encoding": "inplace",
        "label": "address",
        "numberOfBytes": "20"
      },
      "t_array(t_address)dyn_storage": {
        "base": "t_address",
        "encoding": "dynamic_array",
        "label": "address[]",
        "numberOfBytes": "32"
      },
      "t_array(t_uint256)dyn_storage": {
        "base": "t_uint256",
        "encoding": "dynamic_array",
        "label": "uint256[]",
        "numberOfBytes": "32"
      },
      "t_mapping(t_uint256,t_array(t_uint256)dyn_storage)": {
        "encoding": "mapping",
        "key": "t_uint256",
        "label": "mapping(uint256 => uint256[])",
        "numberOfBytes": "32",
        "value": "t_array(t_uint256)dyn_storage"
      },
      "t_mapping(t_uint256,t_uint256)": {
        "encoding": "mapping",
        "key": "t_uint256",
        "label": "mapping(uint256 => uint256)",
        "numberOfBytes": "32",
        "value": "t_uint256"
      },
      "t_uint256": {
        "encoding": "inplace",
        "label": "uint256",
        "numberOfBytes": "32"
      }
    }
  }
}