{
  "address": "0x49D2B580D03B5Fb10975DbA6fbfAE8f92350C2E2",
  "abi": [
    {
      "inputs": [
        {
          "internalType": "address",
          "name": "_ssov",
          "type": "address"
        }
      ],
      "stateMutability": "nonpayable",
      "type": "constructor"
    },
    {
      "anonymous": false,
      "inputs": [
        {
          "indexed": false,
          "internalType": "address",
          "name": "sender",
          "type": "address"
        }
      ],
      "name": "EmergencyWithdraw",
      "type": "event"
    },
    {
      "anonymous": false,
      "inputs": [
        {
          "indexed": false,
          "internalType": "uint256",
          "name": "epoch",
          "type": "uint256"
        },
        {
          "indexed": false,
          "internalType": "uint256",
          "name": "rewards",
          "type": "uint256"
        }
      ],
      "name": "NewRewards",
      "type": "event"
    },
    {
      "anonymous": false,
      "inputs": [
        {
          "indexed": true,
          "internalType": "address",
          "name": "previousOwner",
          "type": "address"
        },
        {
          "indexed": true,
          "internalType": "address",
          "name": "newOwner",
          "type": "address"
        }
      ],
      "name": "OwnershipTransferred",
      "type": "event"
    },
    {
      "anonymous": false,
      "inputs": [
        {
          "indexed": false,
          "internalType": "address",
          "name": "sender",
          "type": "address"
        },
        {
          "indexed": false,
          "internalType": "uint256",
          "name": "amountStaked",
          "type": "uint256"
        },
        {
          "indexed": false,
          "internalType": "uint256",
          "name": "totalStakedBalance",
          "type": "uint256"
        },
        {
          "indexed": false,
          "internalType": "uint256[]",
          "name": "totalRewardsArray",
          "type": "uint256[]"
        }
      ],
      "name": "Stake",
      "type": "event"
    },
    {
      "anonymous": false,
      "inputs": [
        {
          "indexed": false,
          "internalType": "address",
          "name": "sender",
          "type": "address"
        },
        {
          "indexed": false,
          "internalType": "uint256",
          "name": "amountUnstaked",
          "type": "uint256"
        },
        {
          "indexed": false,
          "internalType": "uint256[]",
          "name": "rewardTokenAmounts",
          "type": "uint256[]"
        }
      ],
      "name": "Unstake",
      "type": "event"
    },
    {
      "inputs": [],
      "name": "CRV",
      "outputs": [
        {
          "internalType": "contract IERC20",
          "name": "",
          "type": "address"
        }
      ],
      "stateMutability": "view",
      "type": "function"
    },
    {
      "inputs": [],
      "name": "CRV_2POOL",
      "outputs": [
        {
          "internalType": "contract ICrv2Pool",
          "name": "",
          "type": "address"
        }
      ],
      "stateMutability": "view",
      "type": "function"
    },
    {
      "inputs": [],
      "name": "CRV_2POOL_GAUGE",
      "outputs": [
        {
          "internalType": "contract ICrv2PoolGauge",
          "name": "",
          "type": "address"
        }
      ],
      "stateMutability": "view",
      "type": "function"
    },
    {
      "inputs": [],
      "name": "CRV_CHILD_GAUGE",
      "outputs": [
        {
          "internalType": "contract ICrvChildGauge",
          "name": "",
          "type": "address"
        }
      ],
      "stateMutability": "view",
      "type": "function"
    },
    {
      "inputs": [],
      "name": "DPX",
      "outputs": [
        {
          "internalType": "contract IERC20",
          "name": "",
          "type": "address"
        }
      ],
      "stateMutability": "view",
      "type": "function"
    },
    {
      "inputs": [
        {
          "internalType": "uint256",
          "name": "",
          "type": "uint256"
        }
      ],
      "name": "crvRewardsEmitted",
      "outputs": [
        {
          "internalType": "uint256",
          "name": "",
          "type": "uint256"
        }
      ],
      "stateMutability": "view",
      "type": "function"
    },
    {
      "inputs": [
        {
          "internalType": "address[]",
          "name": "tokens",
          "type": "address[]"
        },
        {
          "internalType": "bool",
          "name": "transferNative",
          "type": "bool"
        }
      ],
      "name": "emergencyWithdraw",
      "outputs": [],
      "stateMutability": "nonpayable",
      "type": "function"
    },
    {
      "inputs": [],
      "name": "getRewardTokens",
      "outputs": [
        {
          "internalType": "address[]",
          "name": "",
          "type": "address[]"
        }
      ],
      "stateMutability": "view",
      "type": "function"
    },
    {
      "inputs": [
        {
          "internalType": "uint256",
          "name": "",
          "type": "uint256"
        }
      ],
      "name": "lastTimestamp",
      "outputs": [
        {
          "internalType": "uint256",
          "name": "",
          "type": "uint256"
        }
      ],
      "stateMutability": "view",
      "type": "function"
    },
    {
      "inputs": [],
      "name": "owner",
      "outputs": [
        {
          "internalType": "address",
          "name": "",
          "type": "address"
        }
      ],
      "stateMutability": "view",
      "type": "function"
    },
    {
      "inputs": [],
      "name": "renounceOwnership",
      "outputs": [],
      "stateMutability": "nonpayable",
      "type": "function"
    },
    {
      "inputs": [
        {
          "internalType": "uint256",
          "name": "",
          "type": "uint256"
        }
      ],
      "name": "rewardTokens",
      "outputs": [
        {
          "internalType": "address",
          "name": "",
          "type": "address"
        }
      ],
      "stateMutability": "view",
      "type": "function"
    },
    {
      "inputs": [
        {
          "internalType": "uint256",
          "name": "",
          "type": "uint256"
        }
      ],
      "name": "rewardsPerEpoch",
      "outputs": [
        {
          "internalType": "uint256",
          "name": "",
          "type": "uint256"
        }
      ],
      "stateMutability": "view",
      "type": "function"
    },
    {
      "inputs": [],
      "name": "ssov",
      "outputs": [
        {
          "internalType": "address",
          "name": "",
          "type": "address"
        }
      ],
      "stateMutability": "view",
      "type": "function"
    },
    {
      "inputs": [
        {
          "internalType": "uint256",
          "name": "amount",
          "type": "uint256"
        }
      ],
      "name": "stake",
      "outputs": [
        {
          "internalType": "uint256[]",
          "name": "rewardTokenAmounts",
          "type": "uint256[]"
        }
      ],
      "stateMutability": "nonpayable",
      "type": "function"
    },
    {
      "inputs": [
        {
          "internalType": "address",
          "name": "newOwner",
          "type": "address"
        }
      ],
      "name": "transferOwnership",
      "outputs": [],
      "stateMutability": "nonpayable",
      "type": "function"
    },
    {
      "inputs": [],
      "name": "unstake",
      "outputs": [
        {
          "internalType": "uint256[]",
          "name": "rewardTokenAmounts",
          "type": "uint256[]"
        }
      ],
      "stateMutability": "nonpayable",
      "type": "function"
    },
    {
      "inputs": [
        {
          "internalType": "uint256",
          "name": "_rewards",
          "type": "uint256"
        },
        {
          "internalType": "uint256",
          "name": "_epoch",
          "type": "uint256"
        }
      ],
      "name": "updateRewardsPerEpoch",
      "outputs": [],
      "stateMutability": "nonpayable",
      "type": "function"
    }
  ],
  "transactionHash": "0xf5e2ba346387e920c17ad3b0457d23aa018f48bf2ea25b27c7485a4f5c4d4aa7",
  "args": [
    "0x7C5aC7E4E352B733CF65721d9Fe28A17Da890159"
  ],
  "numDeployments": 37,
  "solcInputHash": "f060b0d81dfa644b19da1ebdb4c6d8c9",
  "bytecode": "0x600260a08181526101006040529081602001602082028036833750508151620000309260049250602001906200054e565b503480156200003e57600080fd5b5060405162001d3438038062001d348339810160408190526200006191620005cf565b6200006c3362000177565b6001600160a01b038116608052620000bc737f90122bf0700f9e7e1f688fe926940e8839f35373ce5f24b7a95e9cba7df4b54e911b4a3dc8cdaf6f600019620001c7602090811b62000c4d17901c565b7311cdb42b0eb46d95f990bedd4695a6e3fa0349786004600081548110620000e857620000e8620005fa565b9060005260206000200160006101000a8154816001600160a01b0302191690836001600160a01b03160217905550736c2c06790b3e3e3c38e12ee22f8183b37a13ee556004600181548110620001425762000142620005fa565b9060005260206000200160006101000a8154816001600160a01b0302191690836001600160a01b0316021790555050620006e9565b600080546001600160a01b038381166001600160a01b0319831681178455604051919092169283917f8be0079c531659141344cd1fd0a4f28419497f9722a3daafe3b4186f6b6457e09190a35050565b604051636eb1769f60e11b81523060048201526001600160a01b038381166024830152600091620002599184919087169063dd62ed3e90604401602060405180830381865afa1580156200021f573d6000803e3d6000fd5b505050506040513d601f19601f8201168201806040525081019062000245919062000610565b620002bb60201b62000d391790919060201c565b604080516001600160a01b038616602482015260448082018490528251808303909101815260649091019091526020810180516001600160e01b0390811663095ea7b360e01b17909152919250620002b591869190620002d216565b50505050565b6000620002c982846200062a565b90505b92915050565b60006200032e826040518060400160405280602081526020017f5361666545524332303a206c6f772d6c6576656c2063616c6c206661696c6564815250856001600160a01b0316620003b960201b62000d4e179092919060201c565b805190915015620003b457808060200190518101906200034f91906200064c565b620003b45760405162461bcd60e51b815260206004820152602a60248201527f5361666545524332303a204552433230206f7065726174696f6e20646964206e6044820152691bdd081cdd58d8d9595960b21b60648201526084015b60405180910390fd5b505050565b6060620003ca8484600085620003d4565b90505b9392505050565b606082471015620004375760405162461bcd60e51b815260206004820152602660248201527f416464726573733a20696e73756666696369656e742062616c616e636520666f6044820152651c8818d85b1b60d21b6064820152608401620003ab565b6001600160a01b0385163b620004905760405162461bcd60e51b815260206004820152601d60248201527f416464726573733a2063616c6c20746f206e6f6e2d636f6e74726163740000006044820152606401620003ab565b600080866001600160a01b03168587604051620004ae919062000696565b60006040518083038185875af1925050503d8060008114620004ed576040519150601f19603f3d011682016040523d82523d6000602084013e620004f2565b606091505b5090925090506200050582828662000510565b979650505050505050565b6060831562000521575081620003cd565b825115620005325782518084602001fd5b8160405162461bcd60e51b8152600401620003ab9190620006b4565b828054828255906000526020600020908101928215620005a6579160200282015b82811115620005a657825182546001600160a01b0319166001600160a01b039091161782556020909201916001909101906200056f565b50620005b4929150620005b8565b5090565b5b80821115620005b45760008155600101620005b9565b600060208284031215620005e257600080fd5b81516001600160a01b0381168114620003cd57600080fd5b634e487b7160e01b600052603260045260246000fd5b6000602082840312156200062357600080fd5b5051919050565b80820180821115620002cc57634e487b7160e01b600052601160045260246000fd5b6000602082840312156200065f57600080fd5b81518015158114620003cd57600080fd5b60005b838110156200068d57818101518382015260200162000673565b50506000910152565b60008251620006aa81846020870162000670565b9190910192915050565b6020815260008251806020840152620006d581604085016020870162000670565b601f01601f19169190910160400192915050565b60805161161362000721600039600081816101de01528181610305015281816103760152818161080f015261087b01526116136000f3fe608060405234801561001057600080fd5b50600436106101165760003560e01c8063945c9142116100a2578063c4f59f9b11610071578063c4f59f9b1461027f578063d5068d0414610294578063e843d52c146102af578063f2fde38b146102ca578063fb4c124f146102dd57600080fd5b8063945c91421461021157806394cee7b31461022c578063964914fa1461024c578063a694fc3a1461026c57600080fd5b8063715018a6116100e9578063715018a6146101ab5780637bb7bed1146101b35780637c4b52cb146101c65780638355fc54146101d95780638da5cb5b1461020057600080fd5b80632b34bbaa1461011b5780632def6620146101535780632e5eb29d14610168578063336874181461017d575b600080fd5b610136737f90122bf0700f9e7e1f688fe926940e8839f35381565b6040516001600160a01b0390911681526020015b60405180910390f35b61015b6102f8565b60405161014a91906112a5565b61017b6101763660046112b8565b610630565b005b61019d61018b3660046112da565b60026020526000908152604090205481565b60405190815260200161014a565b61017b610687565b6101366101c13660046112da565b61069b565b61017b6101d4366004611301565b6106c5565b6101367f000000000000000000000000000000000000000000000000000000000000000081565b6000546001600160a01b0316610136565b6101367311cdb42b0eb46d95f990bedd4695a6e3fa03497881565b61019d61023a3660046112da565b60016020526000908152604090205481565b61019d61025a3660046112da565b60036020526000908152604090205481565b61015b61027a3660046112da565b610802565b610287610b72565b60405161014a9190611387565b610136736c2c06790b3e3e3c38e12ee22f8183b37a13ee5581565b61013673abc000d88f23bb45525e447528dbf656a9d55bf581565b61017b6102d83660046113d4565b610bd4565b61013673ce5f24b7a95e9cba7df4b54e911b4a3dc8cdaf6f81565b6060336001600160a01b037f00000000000000000000000000000000000000000000000000000000000000001681146103725760405162461bcd60e51b815260206004820152601760248201527629b2b73232b91036bab9ba103132903a34329039b9b7bb60491b60448201526064015b60405180910390fd5b60007f000000000000000000000000000000000000000000000000000000000000000090506000816001600160a01b031663766718086040518163ffffffff1660e01b8152600401602060405180830381865afa1580156103d7573d6000803e3d6000fd5b505050506040513d601f19601f820116820180604052508101906103fb91906113fd565b6040516370a0823160e01b815230600482015290915060009073ce5f24b7a95e9cba7df4b54e911b4a3dc8cdaf6f906370a0823190602401602060405180830381865afa158015610450573d6000803e3d6000fd5b505050506040513d601f19601f8201168201806040525081019061047491906113fd565b60405162ebf5dd60e01b8152600481018290523060248201526000604482015290915073ce5f24b7a95e9cba7df4b54e911b4a3dc8cdaf6f9062ebf5dd90606401600060405180830381600087803b1580156104cf57600080fd5b505af11580156104e3573d6000803e3d6000fd5b5050505060006104f283610d67565b90506105137311cdb42b0eb46d95f990bedd4695a6e3fa0349783383610f17565b610532737f90122bf0700f9e7e1f688fe926940e8839f3533384610f17565b6040805160028082526060820183529091602083019080368337019050509550808660008151811061056657610566611416565b60200260200101818152505060016000848152602001908152602001600020548660018151811061059957610599611416565b6020026020010181815250506105ed33600160008681526020019081526020016000205460046001815481106105d1576105d1611416565b6000918252602090912001546001600160a01b03169190610f17565b7fe69f2c813fbacdba640c6e65761e2d4b772375f2fbe475137078d3ed850aff573383886040516106209392919061142c565b60405180910390a1505050505090565b610638610f4c565b60008181526001602090815260409182902084905581518481529081018390527fb86e3e3978dde9fa5d4008534601be74ce40793f554fbc842b08631e20c61c95910160405180910390a15050565b61068f610f4c565b6106996000610fa6565b565b600481815481106106ab57600080fd5b6000918252602090912001546001600160a01b0316905081565b6106cd610f4c565b80156107015760405133904780156108fc02916000818181858888f193505050501580156106ff573d6000803e3d6000fd5b505b6000805b838110156107c85784848281811061071f5761071f611416565b905060200201602081019061073491906113d4565b6040516370a0823160e01b81523060048201529092506107b69033906001600160a01b038516906370a0823190602401602060405180830381865afa158015610781573d6000803e3d6000fd5b505050506040513d601f19601f820116820180604052508101906107a591906113fd565b6001600160a01b0385169190610f17565b806107c081611472565b915050610705565b506040513381527f5e7b34819cd91b239220bec92fcfd3c10da2214ba13e4e2b1f6c9cfdbd68a9a29060200160405180910390a150505050565b6060336001600160a01b037f00000000000000000000000000000000000000000000000000000000000000001681146108775760405162461bcd60e51b815260206004820152601760248201527629b2b73232b91036bab9ba103132903a34329039b9b7bb60491b6044820152606401610369565b60007f000000000000000000000000000000000000000000000000000000000000000090506000816001600160a01b031663766718086040518163ffffffff1660e01b8152600401602060405180830381865afa1580156108dc573d6000803e3d6000fd5b505050506040513d601f19601f8201168201806040525081019061090091906113fd565b9050600080836001600160a01b0316636f56f56f846040518263ffffffff1660e01b815260040161093391815260200190565b6040805180830381865afa15801561094f573d6000803e3d6000fd5b505050506040513d601f19601f82011682018060405250810190610973919061148b565b9092509050600061098483836114af565b60008581526001602052604090205461099d91906114c2565b905060006109ab84426114af565b6109b590836114e4565b604080516002808252606082018352929350919060208301908036833701905050975080886001815181106109ec576109ec611416565b6020908102919091010152610a17737f90122bf0700f9e7e1f688fe926940e8839f35333308c610ff6565b610a2085610d67565b88600081518110610a3357610a33611416565b60209081029190910101526040516383df674760e01b8152600481018a90523060248201526000604482015273ce5f24b7a95e9cba7df4b54e911b4a3dc8cdaf6f906383df674790606401600060405180830381600087803b158015610a9857600080fd5b505af1158015610aac573d6000803e3d6000fd5b50506040516370a0823160e01b81523060048201526000925073ce5f24b7a95e9cba7df4b54e911b4a3dc8cdaf6f91506370a0823190602401602060405180830381865afa158015610b02573d6000803e3d6000fd5b505050506040513d601f19601f82011682018060405250810190610b2691906113fd565b90507ff129b07eb5effb6c354173bcbbef6ef8cbe16ba22a3207394dcd8e39314c3d39338b838c604051610b5d9493929190611503565b60405180910390a15050505050505050919050565b60606004805480602002602001604051908101604052809291908181526020018280548015610bca57602002820191906000526020600020905b81546001600160a01b03168152600190910190602001808311610bac575b5050505050905090565b610bdc610f4c565b6001600160a01b038116610c415760405162461bcd60e51b815260206004820152602660248201527f4f776e61626c653a206e6577206f776e657220697320746865207a65726f206160448201526564647265737360d01b6064820152608401610369565b610c4a81610fa6565b50565b604051636eb1769f60e11b81523060048201526001600160a01b038381166024830152600091610ccd9184919087169063dd62ed3e90604401602060405180830381865afa158015610ca3573d6000803e3d6000fd5b505050506040513d601f19601f82011682018060405250810190610cc791906113fd565b90610d39565b6040516001600160a01b038516602482015260448101829052909150610d3390859063095ea7b360e01b906064015b60408051601f198184030181529190526020810180516001600160e01b03166001600160e01b03199093169290921790915261102e565b50505050565b6000610d45828461153a565b90505b92915050565b6060610d5d8484600085611100565b90505b9392505050565b6040516370a0823160e01b815230600482015260009081907311cdb42b0eb46d95f990bedd4695a6e3fa034978906370a0823190602401602060405180830381865afa158015610dbb573d6000803e3d6000fd5b505050506040513d601f19601f82011682018060405250810190610ddf91906113fd565b6040516335313c2160e11b815273ce5f24b7a95e9cba7df4b54e911b4a3dc8cdaf6f600482015290915073abc000d88f23bb45525e447528dbf656a9d55bf590636a62784290602401600060405180830381600087803b158015610e4257600080fd5b505af1158015610e56573d6000803e3d6000fd5b50506040516370a0823160e01b81523060048201528392507311cdb42b0eb46d95f990bedd4695a6e3fa03497891506370a0823190602401602060405180830381865afa158015610eab573d6000803e3d6000fd5b505050506040513d601f19601f82011682018060405250810190610ecf91906113fd565b610ed991906114af565b905080600360008581526020019081526020016000206000828254610efe919061153a565b9091555050506000918252506003602052604090205490565b6040516001600160a01b038316602482015260448101829052610f4790849063a9059cbb60e01b90606401610cfc565b505050565b6000546001600160a01b031633146106995760405162461bcd60e51b815260206004820181905260248201527f4f776e61626c653a2063616c6c6572206973206e6f7420746865206f776e65726044820152606401610369565b600080546001600160a01b038381166001600160a01b0319831681178455604051919092169283917f8be0079c531659141344cd1fd0a4f28419497f9722a3daafe3b4186f6b6457e09190a35050565b6040516001600160a01b0380851660248301528316604482015260648101829052610d339085906323b872dd60e01b90608401610cfc565b6000611083826040518060400160405280602081526020017f5361666545524332303a206c6f772d6c6576656c2063616c6c206661696c6564815250856001600160a01b0316610d4e9092919063ffffffff16565b805190915015610f4757808060200190518101906110a1919061154d565b610f475760405162461bcd60e51b815260206004820152602a60248201527f5361666545524332303a204552433230206f7065726174696f6e20646964206e6044820152691bdd081cdd58d8d9595960b21b6064820152608401610369565b6060824710156111615760405162461bcd60e51b815260206004820152602660248201527f416464726573733a20696e73756666696369656e742062616c616e636520666f6044820152651c8818d85b1b60d21b6064820152608401610369565b6001600160a01b0385163b6111b85760405162461bcd60e51b815260206004820152601d60248201527f416464726573733a2063616c6c20746f206e6f6e2d636f6e74726163740000006044820152606401610369565b600080866001600160a01b031685876040516111d4919061158e565b60006040518083038185875af1925050503d8060008114611211576040519150601f19603f3d011682016040523d82523d6000602084013e611216565b606091505b5091509150611226828286611231565b979650505050505050565b60608315611240575081610d60565b8251156112505782518084602001fd5b8160405162461bcd60e51b815260040161036991906115aa565b600081518084526020808501945080840160005b8381101561129a5781518752958201959082019060010161127e565b509495945050505050565b602081526000610d45602083018461126a565b600080604083850312156112cb57600080fd5b50508035926020909101359150565b6000602082840312156112ec57600080fd5b5035919050565b8015158114610c4a57600080fd5b60008060006040848603121561131657600080fd5b833567ffffffffffffffff8082111561132e57600080fd5b818601915086601f83011261134257600080fd5b81358181111561135157600080fd5b8760208260051b850101111561136657600080fd5b6020928301955093505084013561137c816112f3565b809150509250925092565b6020808252825182820181905260009190848201906040850190845b818110156113c85783516001600160a01b0316835292840192918401916001016113a3565b50909695505050505050565b6000602082840312156113e657600080fd5b81356001600160a01b0381168114610d6057600080fd5b60006020828403121561140f57600080fd5b5051919050565b634e487b7160e01b600052603260045260246000fd5b60018060a01b0384168152826020820152606060408201526000611453606083018461126a565b95945050505050565b634e487b7160e01b600052601160045260246000fd5b6000600182016114845761148461145c565b5060010190565b6000806040838503121561149e57600080fd5b505080516020909101519092909150565b81810381811115610d4857610d4861145c565b6000826114df57634e487b7160e01b600052601260045260246000fd5b500490565b60008160001904831182151516156114fe576114fe61145c565b500290565b60018060a01b0385168152836020820152826040820152608060608201526000611530608083018461126a565b9695505050505050565b80820180821115610d4857610d4861145c565b60006020828403121561155f57600080fd5b8151610d60816112f3565b60005b8381101561158557818101518382015260200161156d565b50506000910152565b600082516115a081846020870161156a565b9190910192915050565b60208152600082518060208401526115c981604085016020870161156a565b601f01601f1916919091016040019291505056fea2646970667358221220637892b9b197d1415eeb8d5dd7683bb86d6a5f628c6b9d53d188ad8604f78d6a64736f6c63430008100033",
  "devdoc": {
    "kind": "dev",
    "methods": {
      "emergencyWithdraw(address[],bool)": {
        "details": "Can only be called by the owner",
        "params": {
          "tokens": "The list of erc20 tokens to withdraw",
          "transferNative": "Whether should transfer the native currency"
        }
      },
      "owner()": {
        "details": "Returns the address of the current owner."
      },
      "renounceOwnership()": {
        "details": "Leaves the contract without owner. It will not be possible to call `onlyOwner` functions anymore. Can only be called by the current owner. NOTE: Renouncing ownership will leave the contract without an owner, thereby removing any functionality that is only available to the owner."
      },
      "transferOwnership(address)": {
        "details": "Transfers ownership of the contract to a new account (`newOwner`). Can only be called by the current owner."
      }
    },
    "title": "Stakes 2CRV into the USDC/USDT Curve 2pool on Arbitrum",
    "version": 1
  },
  "userdoc": {
    "kind": "user",
    "methods": {
      "emergencyWithdraw(address[],bool)": {
        "notice": "Transfers all funds to msg.sender"
      }
    },
    "version": 1
  },
  "storageLayout": {
    "storage": [
      {
        "astId": 3739,
        "contract": "contracts/staking-strategies/CurveStakingStrategyV1.sol:CurveStakingStrategyV1",
        "label": "_owner",
        "offset": 0,
        "slot": "0",
        "type": "t_address"
      },
      {
        "astId": 16327,
        "contract": "contracts/staking-strategies/CurveStakingStrategyV1.sol:CurveStakingStrategyV1",
        "label": "rewardsPerEpoch",
        "offset": 0,
        "slot": "1",
        "type": "t_mapping(t_uint256,t_uint256)"
      },
      {
        "astId": 16331,
        "contract": "contracts/staking-strategies/CurveStakingStrategyV1.sol:CurveStakingStrategyV1",
        "label": "lastTimestamp",
        "offset": 0,
        "slot": "2",
        "type": "t_mapping(t_uint256,t_uint256)"
      },
      {
        "astId": 16335,
        "contract": "contracts/staking-strategies/CurveStakingStrategyV1.sol:CurveStakingStrategyV1",
        "label": "crvRewardsEmitted",
        "offset": 0,
        "slot": "3",
        "type": "t_mapping(t_uint256,t_uint256)"
      },
      {
        "astId": 16373,
        "contract": "contracts/staking-strategies/CurveStakingStrategyV1.sol:CurveStakingStrategyV1",
        "label": "rewardTokens",
        "offset": 0,
        "slot": "4",
        "type": "t_array(t_address)dyn_storage"
      }
    ],
    "types": {
      "t_address": {
        "encoding": "inplace",
        "label": "address",
        "numberOfBytes": "20"
      },
      "t_array(t_address)dyn_storage": {
        "base": "t_address",
        "encoding": "dynamic_array",
        "label": "address[]",
        "numberOfBytes": "32"
      },
      "t_mapping(t_uint256,t_uint256)": {
        "encoding": "mapping",
        "key": "t_uint256",
        "label": "mapping(uint256 => uint256)",
        "numberOfBytes": "32",
        "value": "t_uint256"
      },
      "t_uint256": {
        "encoding": "inplace",
        "label": "uint256",
        "numberOfBytes": "32"
      }
    }
  }
}