{
  "address": "0xCC394b9B430745c778F5Ecc971e6613d7F5fd8B5",
  "abi": [
    {
      "inputs": [
        {
          "internalType": "address",
          "name": "_stakingRewards",
          "type": "address"
        },
        {
          "internalType": "address",
          "name": "_ssov",
          "type": "address"
        },
        {
          "internalType": "address[]",
          "name": "_rewardTokens",
          "type": "address[]"
        }
      ],
      "stateMutability": "nonpayable",
      "type": "constructor"
    },
    {
      "anonymous": false,
      "inputs": [
        {
          "indexed": true,
          "internalType": "address",
          "name": "previousOwner",
          "type": "address"
        },
        {
          "indexed": true,
          "internalType": "address",
          "name": "newOwner",
          "type": "address"
        }
      ],
      "name": "OwnershipTransferred",
      "type": "event"
    },
    {
      "anonymous": false,
      "inputs": [
        {
          "indexed": false,
          "internalType": "address",
          "name": "sender",
          "type": "address"
        },
        {
          "indexed": false,
          "internalType": "uint256",
          "name": "amountStaked",
          "type": "uint256"
        },
        {
          "indexed": false,
          "internalType": "uint256",
          "name": "totalStakedBalance",
          "type": "uint256"
        },
        {
          "indexed": false,
          "internalType": "uint256[]",
          "name": "totalRewardsArray",
          "type": "uint256[]"
        }
      ],
      "name": "Stake",
      "type": "event"
    },
    {
      "anonymous": false,
      "inputs": [
        {
          "indexed": false,
          "internalType": "address",
          "name": "sender",
          "type": "address"
        },
        {
          "indexed": false,
          "internalType": "uint256",
          "name": "amountUnstaked",
          "type": "uint256"
        },
        {
          "indexed": false,
          "internalType": "uint256[]",
          "name": "rewardTokenAmounts",
          "type": "uint256[]"
        }
      ],
      "name": "Unstake",
      "type": "event"
    },
    {
      "inputs": [],
      "name": "DPX",
      "outputs": [
        {
          "internalType": "contract IERC20",
          "name": "",
          "type": "address"
        }
      ],
      "stateMutability": "view",
      "type": "function"
    },
    {
      "inputs": [],
      "name": "RDPX",
      "outputs": [
        {
          "internalType": "contract IERC20",
          "name": "",
          "type": "address"
        }
      ],
      "stateMutability": "view",
      "type": "function"
    },
    {
      "inputs": [],
      "name": "STAKING_REWARDS",
      "outputs": [
        {
          "internalType": "contract IStakingRewards",
          "name": "",
          "type": "address"
        }
      ],
      "stateMutability": "view",
      "type": "function"
    },
    {
      "inputs": [],
      "name": "getRewardTokens",
      "outputs": [
        {
          "internalType": "address[]",
          "name": "",
          "type": "address[]"
        }
      ],
      "stateMutability": "view",
      "type": "function"
    },
    {
      "inputs": [],
      "name": "owner",
      "outputs": [
        {
          "internalType": "address",
          "name": "",
          "type": "address"
        }
      ],
      "stateMutability": "view",
      "type": "function"
    },
    {
      "inputs": [],
      "name": "renounceOwnership",
      "outputs": [],
      "stateMutability": "nonpayable",
      "type": "function"
    },
    {
      "inputs": [
        {
          "internalType": "uint256",
          "name": "",
          "type": "uint256"
        }
      ],
      "name": "rewardTokens",
      "outputs": [
        {
          "internalType": "address",
          "name": "",
          "type": "address"
        }
      ],
      "stateMutability": "view",
      "type": "function"
    },
    {
      "inputs": [],
      "name": "ssov",
      "outputs": [
        {
          "internalType": "address",
          "name": "",
          "type": "address"
        }
      ],
      "stateMutability": "view",
      "type": "function"
    },
    {
      "inputs": [
        {
          "internalType": "uint256",
          "name": "amount",
          "type": "uint256"
        }
      ],
      "name": "stake",
      "outputs": [
        {
          "internalType": "uint256[]",
          "name": "rewardTokenAmounts",
          "type": "uint256[]"
        }
      ],
      "stateMutability": "nonpayable",
      "type": "function"
    },
    {
      "inputs": [
        {
          "internalType": "address",
          "name": "newOwner",
          "type": "address"
        }
      ],
      "name": "transferOwnership",
      "outputs": [],
      "stateMutability": "nonpayable",
      "type": "function"
    },
    {
      "inputs": [],
      "name": "unstake",
      "outputs": [
        {
          "internalType": "uint256[]",
          "name": "rewardTokenAmounts",
          "type": "uint256[]"
        }
      ],
      "stateMutability": "nonpayable",
      "type": "function"
    }
  ],
  "transactionHash": "0x95f06c192f4e736abdb067dff34f932ca5e7d398d76f952c8c3330b10fc76487",
  "args": [
    "0xc6D714170fE766691670f12c2b45C1f34405AAb6",
    "0xDb62c01C23E247cea558E90814dBeB215b92C81F",
    [
      "0x6c2c06790b3e3e3c38e12ee22f8183b37a13ee55",
      "0x32eb7902d4134bf98a28b963d26de779af92a212"
    ]
  ],
  "numDeployments": 1,
  "solcInputHash": "b07f7d658b791a7f1c82b871148f38c3",
  "bytecode": "0x600260a0818152610100604052908160200160208202803683375050815162000030926001925060200190620004aa565b503480156200003e57600080fd5b50604051620017713803806200177183398101604081905262000061916200055e565b6200006c33620000c7565b6001600160a01b038216608052620000a8736c2c06790b3e3e3c38e12ee22f8183b37a13ee558460001962000117602090811b6200095a17901c565b8051620000bd906001906020840190620004aa565b505050506200073f565b600080546001600160a01b038381166001600160a01b0319831681178455604051919092169283917f8be0079c531659141344cd1fd0a4f28419497f9722a3daafe3b4186f6b6457e09190a35050565b604051636eb1769f60e11b81523060048201526001600160a01b038381166024830152600091620001b99184919087169063dd62ed3e9060440160206040518083038186803b1580156200016a57600080fd5b505afa1580156200017f573d6000803e3d6000fd5b505050506040513d601f19601f82011682018060405250810190620001a5919062000658565b6200021b60201b62000a551790919060201c565b604080516001600160a01b038616602482015260448082018490528251808303909101815260649091019091526020810180516001600160e01b0390811663095ea7b360e01b1790915291925062000215918691906200023016565b50505050565b600062000229828462000672565b9392505050565b60006200028c826040518060400160405280602081526020017f5361666545524332303a206c6f772d6c6576656c2063616c6c206661696c6564815250856001600160a01b03166200031760201b62000a68179092919060201c565b805190915015620003125780806020019051810190620002ad919062000699565b620003125760405162461bcd60e51b815260206004820152602a60248201527f5361666545524332303a204552433230206f7065726174696f6e20646964206e6044820152691bdd081cdd58d8d9595960b21b60648201526084015b60405180910390fd5b505050565b606062000328848460008562000330565b949350505050565b606082471015620003935760405162461bcd60e51b815260206004820152602660248201527f416464726573733a20696e73756666696369656e742062616c616e636520666f6044820152651c8818d85b1b60d21b606482015260840162000309565b6001600160a01b0385163b620003ec5760405162461bcd60e51b815260206004820152601d60248201527f416464726573733a2063616c6c20746f206e6f6e2d636f6e7472616374000000604482015260640162000309565b600080866001600160a01b031685876040516200040a9190620006ec565b60006040518083038185875af1925050503d806000811462000449576040519150601f19603f3d011682016040523d82523d6000602084013e6200044e565b606091505b509092509050620004618282866200046c565b979650505050505050565b606083156200047d57508162000229565b8251156200048e5782518084602001fd5b8160405162461bcd60e51b81526004016200030991906200070a565b82805482825590600052602060002090810192821562000502579160200282015b828111156200050257825182546001600160a01b0319166001600160a01b03909116178255602090920191600190910190620004cb565b506200051092915062000514565b5090565b5b8082111562000510576000815560010162000515565b634e487b7160e01b600052604160045260246000fd5b80516001600160a01b03811681146200055957600080fd5b919050565b6000806000606084860312156200057457600080fd5b6200057f8462000541565b925060206200059081860162000541565b60408601519093506001600160401b0380821115620005ae57600080fd5b818701915087601f830112620005c357600080fd5b815181811115620005d857620005d86200052b565b8060051b604051601f19603f830116810181811085821117156200060057620006006200052b565b60405291825284820192508381018501918a8311156200061f57600080fd5b938501935b828510156200064857620006388562000541565b8452938501939285019262000624565b8096505050505050509250925092565b6000602082840312156200066b57600080fd5b5051919050565b600082198211156200069457634e487b7160e01b600052601160045260246000fd5b500190565b600060208284031215620006ac57600080fd5b815180151581146200022957600080fd5b60005b83811015620006da578181015183820152602001620006c0565b83811115620002155750506000910152565b6000825162000700818460208701620006bd565b9190910192915050565b60208152600082518060208401526200072b816040850160208701620006bd565b601f01601f19169190910160400192915050565b608051611008620007696000396000818161011d015281816101ce015261059901526110086000f3fe608060405234801561001057600080fd5b50600436106100a95760003560e01c80638da5cb5b116100715780638da5cb5b1461013f578063a694fc3a14610150578063b026586714610163578063c4f59f9b1461017e578063d5068d0414610193578063f2fde38b146101ae57600080fd5b806307bce0cd146100ae5780632def6620146100e6578063715018a6146100fb5780637bb7bed1146101055780638355fc5414610118575b600080fd5b6100c973c6d714170fe766691670f12c2b45c1f34405aab681565b6040516001600160a01b0390911681526020015b60405180910390f35b6100ee6101c1565b6040516100dd9190610db3565b6101036104fc565b005b6100c9610113366004610dc6565b610562565b6100c97f000000000000000000000000000000000000000000000000000000000000000081565b6000546001600160a01b03166100c9565b6100ee61015e366004610dc6565b61058c565b6100c97332eb7902d4134bf98a28b963d26de779af92a21281565b61018661082d565b6040516100dd9190610ddf565b6100c9736c2c06790b3e3e3c38e12ee22f8183b37a13ee5581565b6101036101bc366004610e2c565b61088f565b6060336001600160a01b037f000000000000000000000000000000000000000000000000000000000000000016811461023b5760405162461bcd60e51b815260206004820152601760248201527629b2b73232b91036bab9ba103132903a34329039b9b7bb60491b60448201526064015b60405180910390fd5b6040805160028082526060820183529091602083019080368337019050506040516246613160e11b815230600482015290925073c6d714170fe766691670f12c2b45c1f34405aab690628cc26290602401604080518083038186803b1580156102a357600080fd5b505afa1580156102b7573d6000803e3d6000fd5b505050506040513d601f19601f820116820180604052508101906102db9190610e55565b836000815181106102ee576102ee610e79565b602002602001018460018151811061030857610308610e79565b6020908102919091010191909152526040516370a0823160e01b815230600482015260009073c6d714170fe766691670f12c2b45c1f34405aab6906370a082319060240160206040518083038186803b15801561036457600080fd5b505afa158015610378573d6000803e3d6000fd5b505050506040513d601f19601f8201168201806040525081019061039c9190610e8f565b905073c6d714170fe766691670f12c2b45c1f34405aab66001600160a01b031663e9fad8ee6040518163ffffffff1660e01b8152600401600060405180830381600087803b1580156103ed57600080fd5b505af1158015610401573d6000803e3d6000fd5b50505050610451338460008151811061041c5761041c610e79565b6020026020010151736c2c06790b3e3e3c38e12ee22f8183b37a13ee556001600160a01b0316610a7f9092919063ffffffff16565b61049d338460018151811061046857610468610e79565b60200260200101517332eb7902d4134bf98a28b963d26de779af92a2126001600160a01b0316610a7f9092919063ffffffff16565b6104bc736c2c06790b3e3e3c38e12ee22f8183b37a13ee553383610a7f565b7fe69f2c813fbacdba640c6e65761e2d4b772375f2fbe475137078d3ed850aff573382856040516104ef93929190610ea8565b60405180910390a1505090565b6000546001600160a01b031633146105565760405162461bcd60e51b815260206004820181905260248201527f4f776e61626c653a2063616c6c6572206973206e6f7420746865206f776e65726044820152606401610232565b6105606000610ab4565b565b6001818154811061057257600080fd5b6000918252602090912001546001600160a01b0316905081565b6060336001600160a01b037f00000000000000000000000000000000000000000000000000000000000000001681146106015760405162461bcd60e51b815260206004820152601760248201527629b2b73232b91036bab9ba103132903a34329039b9b7bb60491b6044820152606401610232565b610621736c2c06790b3e3e3c38e12ee22f8183b37a13ee55333086610b04565b6040805160028082526060820183529091602083019080368337019050506040516246613160e11b815230600482015290925073c6d714170fe766691670f12c2b45c1f34405aab690628cc26290602401604080518083038186803b15801561068957600080fd5b505afa15801561069d573d6000803e3d6000fd5b505050506040513d601f19601f820116820180604052508101906106c19190610e55565b836000815181106106d4576106d4610e79565b60200260200101846001815181106106ee576106ee610e79565b60209081029190910101919091525260405163534a7e1d60e11b81526004810184905273c6d714170fe766691670f12c2b45c1f34405aab69063a694fc3a90602401600060405180830381600087803b15801561074a57600080fd5b505af115801561075e573d6000803e3d6000fd5b50506040516370a0823160e01b81523060048201526000925073c6d714170fe766691670f12c2b45c1f34405aab691506370a082319060240160206040518083038186803b1580156107af57600080fd5b505afa1580156107c3573d6000803e3d6000fd5b505050506040513d601f19601f820116820180604052508101906107e79190610e8f565b90507ff129b07eb5effb6c354173bcbbef6ef8cbe16ba22a3207394dcd8e39314c3d393385838660405161081e9493929190610ed8565b60405180910390a15050919050565b6060600180548060200260200160405190810160405280929190818152602001828054801561088557602002820191906000526020600020905b81546001600160a01b03168152600190910190602001808311610867575b5050505050905090565b6000546001600160a01b031633146108e95760405162461bcd60e51b815260206004820181905260248201527f4f776e61626c653a2063616c6c6572206973206e6f7420746865206f776e65726044820152606401610232565b6001600160a01b03811661094e5760405162461bcd60e51b815260206004820152602660248201527f4f776e61626c653a206e6577206f776e657220697320746865207a65726f206160448201526564647265737360d01b6064820152608401610232565b61095781610ab4565b50565b604051636eb1769f60e11b81523060048201526001600160a01b0383811660248301526000916109e99184919087169063dd62ed3e9060440160206040518083038186803b1580156109ab57600080fd5b505afa1580156109bf573d6000803e3d6000fd5b505050506040513d601f19601f820116820180604052508101906109e39190610e8f565b90610a55565b6040516001600160a01b038516602482015260448101829052909150610a4f90859063095ea7b360e01b906064015b60408051601f198184030181529190526020810180516001600160e01b03166001600160e01b031990931692909217909152610b3c565b50505050565b6000610a618284610f0f565b9392505050565b6060610a778484600085610c0e565b949350505050565b6040516001600160a01b038316602482015260448101829052610aaf90849063a9059cbb60e01b90606401610a18565b505050565b600080546001600160a01b038381166001600160a01b0319831681178455604051919092169283917f8be0079c531659141344cd1fd0a4f28419497f9722a3daafe3b4186f6b6457e09190a35050565b6040516001600160a01b0380851660248301528316604482015260648101829052610a4f9085906323b872dd60e01b90608401610a18565b6000610b91826040518060400160405280602081526020017f5361666545524332303a206c6f772d6c6576656c2063616c6c206661696c6564815250856001600160a01b0316610a689092919063ffffffff16565b805190915015610aaf5780806020019051810190610baf9190610f35565b610aaf5760405162461bcd60e51b815260206004820152602a60248201527f5361666545524332303a204552433230206f7065726174696f6e20646964206e6044820152691bdd081cdd58d8d9595960b21b6064820152608401610232565b606082471015610c6f5760405162461bcd60e51b815260206004820152602660248201527f416464726573733a20696e73756666696369656e742062616c616e636520666f6044820152651c8818d85b1b60d21b6064820152608401610232565b6001600160a01b0385163b610cc65760405162461bcd60e51b815260206004820152601d60248201527f416464726573733a2063616c6c20746f206e6f6e2d636f6e74726163740000006044820152606401610232565b600080866001600160a01b03168587604051610ce29190610f83565b60006040518083038185875af1925050503d8060008114610d1f576040519150601f19603f3d011682016040523d82523d6000602084013e610d24565b606091505b5091509150610d34828286610d3f565b979650505050505050565b60608315610d4e575081610a61565b825115610d5e5782518084602001fd5b8160405162461bcd60e51b81526004016102329190610f9f565b600081518084526020808501945080840160005b83811015610da857815187529582019590820190600101610d8c565b509495945050505050565b602081526000610a616020830184610d78565b600060208284031215610dd857600080fd5b5035919050565b6020808252825182820181905260009190848201906040850190845b81811015610e205783516001600160a01b031683529284019291840191600101610dfb565b50909695505050505050565b600060208284031215610e3e57600080fd5b81356001600160a01b0381168114610a6157600080fd5b60008060408385031215610e6857600080fd5b505080516020909101519092909150565b634e487b7160e01b600052603260045260246000fd5b600060208284031215610ea157600080fd5b5051919050565b60018060a01b0384168152826020820152606060408201526000610ecf6060830184610d78565b95945050505050565b60018060a01b0385168152836020820152826040820152608060608201526000610f056080830184610d78565b9695505050505050565b60008219821115610f3057634e487b7160e01b600052601160045260246000fd5b500190565b600060208284031215610f4757600080fd5b81518015158114610a6157600080fd5b60005b83811015610f72578181015183820152602001610f5a565b83811115610a4f5750506000910152565b60008251610f95818460208701610f57565b9190910192915050565b6020815260008251806020840152610fbe816040850160208701610f57565b601f01601f1916919091016040019291505056fea26469706673582212209d851c05147529964abd8e844b46eb3447e36f5e7f1835bfccf5af5c0b4c8d1864736f6c63430008090033",
  "devdoc": {
    "kind": "dev",
    "methods": {
      "owner()": {
        "details": "Returns the address of the current owner."
      },
      "renounceOwnership()": {
        "details": "Leaves the contract without owner. It will not be possible to call `onlyOwner` functions anymore. Can only be called by the current owner. NOTE: Renouncing ownership will leave the contract without an owner, thereby removing any functionality that is only available to the owner."
      },
      "transferOwnership(address)": {
        "details": "Transfers ownership of the contract to a new account (`newOwner`). Can only be called by the current owner."
      }
    },
    "title": "Stakes DPX into the DPX single sided farm on Arbitrum",
    "version": 1
  },
  "userdoc": {
    "kind": "user",
    "methods": {},
    "version": 1
  },
  "storageLayout": {
    "storage": [
      {
        "astId": 3546,
        "contract": "contracts/staking-strategies/DpxStakingStrategyV1.sol:DpxStakingStrategyV1",
        "label": "_owner",
        "offset": 0,
        "slot": "0",
        "type": "t_address"
      },
      {
        "astId": 14702,
        "contract": "contracts/staking-strategies/DpxStakingStrategyV1.sol:DpxStakingStrategyV1",
        "label": "rewardTokens",
        "offset": 0,
        "slot": "1",
        "type": "t_array(t_address)dyn_storage"
      }
    ],
    "types": {
      "t_address": {
        "encoding": "inplace",
        "label": "address",
        "numberOfBytes": "20"
      },
      "t_array(t_address)dyn_storage": {
        "base": "t_address",
        "encoding": "dynamic_array",
        "label": "address[]",
        "numberOfBytes": "32"
      }
    }
  }
}