{
  "address": "0x96BcD222370ba8a8e1D0372dC2BC58fEfAB7AFC3",
  "abi": [
    {
      "inputs": [
        {
          "internalType": "address",
          "name": "_ssov",
          "type": "address"
        },
        {
          "internalType": "address",
          "name": "_rewardToken",
          "type": "address"
        }
      ],
      "stateMutability": "nonpayable",
      "type": "constructor"
    },
    {
      "anonymous": false,
      "inputs": [
        {
          "indexed": false,
          "internalType": "address",
          "name": "sender",
          "type": "address"
        }
      ],
      "name": "EmergencyWithdraw",
      "type": "event"
    },
    {
      "anonymous": false,
      "inputs": [
        {
          "indexed": false,
          "internalType": "uint256",
          "name": "epoch",
          "type": "uint256"
        },
        {
          "indexed": false,
          "internalType": "uint256",
          "name": "rewards",
          "type": "uint256"
        }
      ],
      "name": "NewRewards",
      "type": "event"
    },
    {
      "anonymous": false,
      "inputs": [
        {
          "indexed": true,
          "internalType": "address",
          "name": "previousOwner",
          "type": "address"
        },
        {
          "indexed": true,
          "internalType": "address",
          "name": "newOwner",
          "type": "address"
        }
      ],
      "name": "OwnershipTransferred",
      "type": "event"
    },
    {
      "anonymous": false,
      "inputs": [
        {
          "indexed": false,
          "internalType": "address",
          "name": "sender",
          "type": "address"
        },
        {
          "indexed": false,
          "internalType": "uint256",
          "name": "amountStaked",
          "type": "uint256"
        },
        {
          "indexed": false,
          "internalType": "uint256",
          "name": "totalStakedBalance",
          "type": "uint256"
        },
        {
          "indexed": false,
          "internalType": "uint256[]",
          "name": "totalRewardsArray",
          "type": "uint256[]"
        }
      ],
      "name": "Stake",
      "type": "event"
    },
    {
      "anonymous": false,
      "inputs": [
        {
          "indexed": false,
          "internalType": "address",
          "name": "sender",
          "type": "address"
        },
        {
          "indexed": false,
          "internalType": "uint256",
          "name": "amountUnstaked",
          "type": "uint256"
        },
        {
          "indexed": false,
          "internalType": "uint256[]",
          "name": "rewardTokenAmounts",
          "type": "uint256[]"
        }
      ],
      "name": "Unstake",
      "type": "event"
    },
    {
      "inputs": [],
      "name": "balance",
      "outputs": [
        {
          "internalType": "uint256",
          "name": "",
          "type": "uint256"
        }
      ],
      "stateMutability": "view",
      "type": "function"
    },
    {
      "inputs": [
        {
          "internalType": "address[]",
          "name": "tokens",
          "type": "address[]"
        },
        {
          "internalType": "bool",
          "name": "transferNative",
          "type": "bool"
        }
      ],
      "name": "emergencyWithdraw",
      "outputs": [],
      "stateMutability": "nonpayable",
      "type": "function"
    },
    {
      "inputs": [],
      "name": "getRewardTokens",
      "outputs": [
        {
          "internalType": "address[]",
          "name": "",
          "type": "address[]"
        }
      ],
      "stateMutability": "view",
      "type": "function"
    },
    {
      "inputs": [
        {
          "internalType": "uint256",
          "name": "",
          "type": "uint256"
        }
      ],
      "name": "lastTimestamp",
      "outputs": [
        {
          "internalType": "uint256",
          "name": "",
          "type": "uint256"
        }
      ],
      "stateMutability": "view",
      "type": "function"
    },
    {
      "inputs": [],
      "name": "owner",
      "outputs": [
        {
          "internalType": "address",
          "name": "",
          "type": "address"
        }
      ],
      "stateMutability": "view",
      "type": "function"
    },
    {
      "inputs": [],
      "name": "renounceOwnership",
      "outputs": [],
      "stateMutability": "nonpayable",
      "type": "function"
    },
    {
      "inputs": [
        {
          "internalType": "uint256",
          "name": "",
          "type": "uint256"
        }
      ],
      "name": "rewardTokens",
      "outputs": [
        {
          "internalType": "address",
          "name": "",
          "type": "address"
        }
      ],
      "stateMutability": "view",
      "type": "function"
    },
    {
      "inputs": [
        {
          "internalType": "uint256",
          "name": "",
          "type": "uint256"
        }
      ],
      "name": "rewardsPerEpoch",
      "outputs": [
        {
          "internalType": "uint256",
          "name": "",
          "type": "uint256"
        }
      ],
      "stateMutability": "view",
      "type": "function"
    },
    {
      "inputs": [],
      "name": "ssov",
      "outputs": [
        {
          "internalType": "address",
          "name": "",
          "type": "address"
        }
      ],
      "stateMutability": "view",
      "type": "function"
    },
    {
      "inputs": [
        {
          "internalType": "uint256",
          "name": "amount",
          "type": "uint256"
        }
      ],
      "name": "stake",
      "outputs": [
        {
          "internalType": "uint256[]",
          "name": "rewardTokenAmounts",
          "type": "uint256[]"
        }
      ],
      "stateMutability": "nonpayable",
      "type": "function"
    },
    {
      "inputs": [
        {
          "internalType": "address",
          "name": "newOwner",
          "type": "address"
        }
      ],
      "name": "transferOwnership",
      "outputs": [],
      "stateMutability": "nonpayable",
      "type": "function"
    },
    {
      "inputs": [],
      "name": "unstake",
      "outputs": [
        {
          "internalType": "uint256[]",
          "name": "rewardTokenAmounts",
          "type": "uint256[]"
        }
      ],
      "stateMutability": "nonpayable",
      "type": "function"
    },
    {
      "inputs": [
        {
          "internalType": "uint256",
          "name": "_rewards",
          "type": "uint256"
        },
        {
          "internalType": "uint256",
          "name": "_epoch",
          "type": "uint256"
        }
      ],
      "name": "updateRewardsPerEpoch",
      "outputs": [],
      "stateMutability": "nonpayable",
      "type": "function"
    }
  ],
  "transactionHash": "0x0aeafffcbd5efb09941f303e4f6eed8857ba595c6e9a17e724283da83caa1f9b",
  "args": [
    "0xC59836FEC63Cfb2E48b0aa00515056436D74Dc03",
    "0x6c2c06790b3e3e3c38e12ee22f8183b37a13ee55"
  ],
  "numDeployments": 9,
  "solcInputHash": "cced2cfaa957a4455e8c706b6f93e297",
  "bytecode": "0x600160a081815260e06040529060c0602080368337505081516200002b92600492506020019062000117565b503480156200003957600080fd5b5060405162001239380380620012398339810160408190526200005c91620001b5565b81816200006933620000c7565b6001600160a01b038216608052600480548291906000906200008f576200008f620001ed565b9060005260206000200160006101000a8154816001600160a01b0302191690836001600160a01b031602179055505050505062000203565b600080546001600160a01b038381166001600160a01b0319831681178455604051919092169283917f8be0079c531659141344cd1fd0a4f28419497f9722a3daafe3b4186f6b6457e09190a35050565b8280548282559060005260206000209081019282156200016f579160200282015b828111156200016f57825182546001600160a01b0319166001600160a01b0390911617825560209092019160019091019062000138565b506200017d92915062000181565b5090565b5b808211156200017d576000815560010162000182565b80516001600160a01b0381168114620001b057600080fd5b919050565b60008060408385031215620001c957600080fd5b620001d48362000198565b9150620001e46020840162000198565b90509250929050565b634e487b7160e01b600052603260045260246000fd5b608051610ffe6200023b600039600081816101800152818161022401528181610295015281816105d3015261063f0152610ffe6000f3fe608060405234801561001057600080fd5b50600436106100cf5760003560e01c80638355fc541161008c578063a694fc3a11610066578063a694fc3a146101d3578063b69ef8a8146101e6578063c4f59f9b146101ef578063f2fde38b1461020457600080fd5b80638355fc541461017b5780638da5cb5b146101a257806394cee7b3146101b357600080fd5b80632def6620146100d45780632e5eb29d146100f25780633368741814610107578063715018a6146101355780637bb7bed11461013d5780637c4b52cb14610168575b600080fd5b6100dc610217565b6040516100e99190610c8a565b60405180910390f35b610105610100366004610c9d565b6103f4565b005b610127610115366004610cbf565b60026020526000908152604090205481565b6040519081526020016100e9565b61010561044b565b61015061014b366004610cbf565b61045f565b6040516001600160a01b0390911681526020016100e9565b610105610176366004610ce6565b610489565b6101507f000000000000000000000000000000000000000000000000000000000000000081565b6000546001600160a01b0316610150565b6101276101c1366004610cbf565b60016020526000908152604090205481565b6100dc6101e1366004610cbf565b6105c6565b61012760035481565b6101f761081e565b6040516100e99190610d6c565b610105610212366004610db9565b610880565b6060336001600160a01b037f00000000000000000000000000000000000000000000000000000000000000001681146102915760405162461bcd60e51b815260206004820152601760248201527629b2b73232b91036bab9ba103132903a34329039b9b7bb60491b60448201526064015b60405180910390fd5b60007f000000000000000000000000000000000000000000000000000000000000000090506000816001600160a01b031663766718086040518163ffffffff1660e01b8152600401602060405180830381865afa1580156102f6573d6000803e3d6000fd5b505050506040513d601f19601f8201168201806040525081019061031a9190610de2565b6040805160018082528183019092529192506020808301908036833750505060008281526001602052604081205482519296509186919061035d5761035d610dfb565b6020026020010181815250506103b1336001600084815260200190815260200160002054600460008154811061039557610395610dfb565b6000918252602090912001546001600160a01b031691906108f9565b7fe69f2c813fbacdba640c6e65761e2d4b772375f2fbe475137078d3ed850aff5733600354866040516103e693929190610e11565b60405180910390a150505090565b6103fc610950565b60008181526001602090815260409182902084905581518381529081018490527fb86e3e3978dde9fa5d4008534601be74ce40793f554fbc842b08631e20c61c95910160405180910390a15050565b610453610950565b61045d60006109aa565b565b6004818154811061046f57600080fd5b6000918252602090912001546001600160a01b0316905081565b610491610950565b80156104c55760405133904780156108fc02916000818181858888f193505050501580156104c3573d6000803e3d6000fd5b505b6000805b8381101561058c578484828181106104e3576104e3610dfb565b90506020020160208101906104f89190610db9565b6040516370a0823160e01b815230600482015290925061057a9033906001600160a01b038516906370a0823190602401602060405180830381865afa158015610545573d6000803e3d6000fd5b505050506040513d601f19601f820116820180604052508101906105699190610de2565b6001600160a01b03851691906108f9565b8061058481610e57565b9150506104c9565b506040513381527f5e7b34819cd91b239220bec92fcfd3c10da2214ba13e4e2b1f6c9cfdbd68a9a29060200160405180910390a150505050565b6060336001600160a01b037f000000000000000000000000000000000000000000000000000000000000000016811461063b5760405162461bcd60e51b815260206004820152601760248201527629b2b73232b91036bab9ba103132903a34329039b9b7bb60491b6044820152606401610288565b60007f000000000000000000000000000000000000000000000000000000000000000090506000816001600160a01b031663766718086040518163ffffffff1660e01b8152600401602060405180830381865afa1580156106a0573d6000803e3d6000fd5b505050506040513d601f19601f820116820180604052508101906106c49190610de2565b9050600080836001600160a01b0316636f56f56f846040518263ffffffff1660e01b81526004016106f791815260200190565b6040805180830381865afa158015610713573d6000803e3d6000fd5b505050506040513d601f19601f820116820180604052508101906107379190610e70565b909250905060006107488383610e94565b6000858152600160205260409020546107619190610ead565b905087600360008282546107759190610ecf565b90915550600090506107878442610e94565b6107919083610ee2565b6040805160018082528183019092529192506020808301908036833701905050975080886000815181106107c7576107c7610dfb565b6020026020010181815250507ff129b07eb5effb6c354173bcbbef6ef8cbe16ba22a3207394dcd8e39314c3d39338a6003548b60405161080a9493929190610f01565b60405180910390a150505050505050919050565b6060600480548060200260200160405190810160405280929190818152602001828054801561087657602002820191906000526020600020905b81546001600160a01b03168152600190910190602001808311610858575b5050505050905090565b610888610950565b6001600160a01b0381166108ed5760405162461bcd60e51b815260206004820152602660248201527f4f776e61626c653a206e6577206f776e657220697320746865207a65726f206160448201526564647265737360d01b6064820152608401610288565b6108f6816109aa565b50565b604080516001600160a01b038416602482015260448082018490528251808303909101815260649091019091526020810180516001600160e01b031663a9059cbb60e01b17905261094b9084906109fa565b505050565b6000546001600160a01b0316331461045d5760405162461bcd60e51b815260206004820181905260248201527f4f776e61626c653a2063616c6c6572206973206e6f7420746865206f776e65726044820152606401610288565b600080546001600160a01b038381166001600160a01b0319831681178455604051919092169283917f8be0079c531659141344cd1fd0a4f28419497f9722a3daafe3b4186f6b6457e09190a35050565b6000610a4f826040518060400160405280602081526020017f5361666545524332303a206c6f772d6c6576656c2063616c6c206661696c6564815250856001600160a01b0316610acc9092919063ffffffff16565b80519091501561094b5780806020019051810190610a6d9190610f38565b61094b5760405162461bcd60e51b815260206004820152602a60248201527f5361666545524332303a204552433230206f7065726174696f6e20646964206e6044820152691bdd081cdd58d8d9595960b21b6064820152608401610288565b6060610adb8484600085610ae5565b90505b9392505050565b606082471015610b465760405162461bcd60e51b815260206004820152602660248201527f416464726573733a20696e73756666696369656e742062616c616e636520666f6044820152651c8818d85b1b60d21b6064820152608401610288565b6001600160a01b0385163b610b9d5760405162461bcd60e51b815260206004820152601d60248201527f416464726573733a2063616c6c20746f206e6f6e2d636f6e74726163740000006044820152606401610288565b600080866001600160a01b03168587604051610bb99190610f79565b60006040518083038185875af1925050503d8060008114610bf6576040519150601f19603f3d011682016040523d82523d6000602084013e610bfb565b606091505b5091509150610c0b828286610c16565b979650505050505050565b60608315610c25575081610ade565b825115610c355782518084602001fd5b8160405162461bcd60e51b81526004016102889190610f95565b600081518084526020808501945080840160005b83811015610c7f57815187529582019590820190600101610c63565b509495945050505050565b602081526000610ade6020830184610c4f565b60008060408385031215610cb057600080fd5b50508035926020909101359150565b600060208284031215610cd157600080fd5b5035919050565b80151581146108f657600080fd5b600080600060408486031215610cfb57600080fd5b833567ffffffffffffffff80821115610d1357600080fd5b818601915086601f830112610d2757600080fd5b813581811115610d3657600080fd5b8760208260051b8501011115610d4b57600080fd5b60209283019550935050840135610d6181610cd8565b809150509250925092565b6020808252825182820181905260009190848201906040850190845b81811015610dad5783516001600160a01b031683529284019291840191600101610d88565b50909695505050505050565b600060208284031215610dcb57600080fd5b81356001600160a01b0381168114610ade57600080fd5b600060208284031215610df457600080fd5b5051919050565b634e487b7160e01b600052603260045260246000fd5b60018060a01b0384168152826020820152606060408201526000610e386060830184610c4f565b95945050505050565b634e487b7160e01b600052601160045260246000fd5b600060018201610e6957610e69610e41565b5060010190565b60008060408385031215610e8357600080fd5b505080516020909101519092909150565b81810381811115610ea757610ea7610e41565b92915050565b600082610eca57634e487b7160e01b600052601260045260246000fd5b500490565b80820180821115610ea757610ea7610e41565b6000816000190483118215151615610efc57610efc610e41565b500290565b60018060a01b0385168152836020820152826040820152608060608201526000610f2e6080830184610c4f565b9695505050505050565b600060208284031215610f4a57600080fd5b8151610ade81610cd8565b60005b83811015610f70578181015183820152602001610f58565b50506000910152565b60008251610f8b818460208701610f55565b9190910192915050565b6020815260008251806020840152610fb4816040850160208701610f55565b601f01601f1916919091016040019291505056fea264697066735822122033c89283a4ff31a8e392fc6be695de928ec50e0819396bd522c805763e84959464736f6c63430008100033",
  "devdoc": {
    "kind": "dev",
    "methods": {
      "emergencyWithdraw(address[],bool)": {
        "details": "Can only be called by the owner",
        "params": {
          "tokens": "The list of erc20 tokens to withdraw",
          "transferNative": "Whether should transfer the native currency"
        }
      },
      "owner()": {
        "details": "Returns the address of the current owner."
      },
      "renounceOwnership()": {
        "details": "Leaves the contract without owner. It will not be possible to call `onlyOwner` functions anymore. Can only be called by the current owner. NOTE: Renouncing ownership will leave the contract without an owner, thereby removing any functionality that is only available to the owner."
      },
      "transferOwnership(address)": {
        "details": "Transfers ownership of the contract to a new account (`newOwner`). Can only be called by the current owner."
      }
    },
    "version": 1
  },
  "userdoc": {
    "kind": "user",
    "methods": {
      "emergencyWithdraw(address[],bool)": {
        "notice": "Transfers all funds to msg.sender"
      }
    },
    "version": 1
  },
  "storageLayout": {
    "storage": [
      {
        "astId": 3739,
        "contract": "contracts/staking-strategies/EthStakingStrategyV1.sol:EthStakingStrategyV1",
        "label": "_owner",
        "offset": 0,
        "slot": "0",
        "type": "t_address"
      },
      {
        "astId": 15640,
        "contract": "contracts/staking-strategies/EthStakingStrategyV1.sol:EthStakingStrategyV1",
        "label": "rewardsPerEpoch",
        "offset": 0,
        "slot": "1",
        "type": "t_mapping(t_uint256,t_uint256)"
      },
      {
        "astId": 15644,
        "contract": "contracts/staking-strategies/EthStakingStrategyV1.sol:EthStakingStrategyV1",
        "label": "lastTimestamp",
        "offset": 0,
        "slot": "2",
        "type": "t_mapping(t_uint256,t_uint256)"
      },
      {
        "astId": 15646,
        "contract": "contracts/staking-strategies/EthStakingStrategyV1.sol:EthStakingStrategyV1",
        "label": "balance",
        "offset": 0,
        "slot": "3",
        "type": "t_uint256"
      },
      {
        "astId": 15654,
        "contract": "contracts/staking-strategies/EthStakingStrategyV1.sol:EthStakingStrategyV1",
        "label": "rewardTokens",
        "offset": 0,
        "slot": "4",
        "type": "t_array(t_address)dyn_storage"
      }
    ],
    "types": {
      "t_address": {
        "encoding": "inplace",
        "label": "address",
        "numberOfBytes": "20"
      },
      "t_array(t_address)dyn_storage": {
        "base": "t_address",
        "encoding": "dynamic_array",
        "label": "address[]",
        "numberOfBytes": "32"
      },
      "t_mapping(t_uint256,t_uint256)": {
        "encoding": "mapping",
        "key": "t_uint256",
        "label": "mapping(uint256 => uint256)",
        "numberOfBytes": "32",
        "value": "t_uint256"
      },
      "t_uint256": {
        "encoding": "inplace",
        "label": "uint256",
        "numberOfBytes": "32"
      }
    }
  }
}